S01700006275696C642F697269732F6D61696E2E7372656343
S11300000C947C000C949B000C949B000C949B001F
S11300100C949B000C949B000C949B000C949B00F0
S11300200C949B000C949B000C949B000C949B00E0
S11300300C949B000C9447050C949B000C94A40313
S11300400C9407100C943F100C947C040C948704BB
S11300500C9492040C949B000C949B000C949B00B5
S11300600C94C5030C949B000C949B000C949B0073
S11300700C949B000C94C0040C949B000C949B0067
S11300800C949B000C949B000C949B000C949B0080
S11300900C949B000C949B000C949B000C949B0070
S11300A00C949B000C949B000C949B000C949B0060
S11300B00C949B000C949B000C949B000C949B0050
S11300C00C949B000C949B000C949B00A610D710DE
S11300D0ED102011721193111A12CA1226133B1338
S11300E0CA13FA13FD1308146214D014F0149E10EA
S11300F0131500020E060C0411241FBECFEFD1E22B
S1130100DEBFCDBF12E0A0E0B2E0ECE6F2E300E037
S11301100BBF02C007900D92AE30B107D9F714E0BF
S1130120AEE0B2E001C01D92A931B107E1F70E942F
S113013078150C9435190C9400008FB7F89499270E
S113014008958FBF08958FB7F894992722B132E0AC
S1130150232722B98FBF08958FB7F894992722B126
S113016034E0232722B98FBF0895CF93DF93FC0196
S1130170DC0111962181662351F0ED0189819927D3
S1130180982F882733272062822B932B09C0ED01F7
S113019089819927982F88273327822B932B8F7D4A
S11301A08183892F99278983DF91CF910895282FFF
S11301B09FB7F894E82FFF27EF5CFD4F80818F3FB6
S11301C081F4E0911304E21771F40BC0209300044E
S11301D004C0FF27EF5CFD4F20832093130420E02D
S11301E007C025E005C0809100048F3F91F7EECF52
S11301F0892F99278FBF822F992708957FB7F89465
S11302006091B20020912C0230912D0240912E0277
S113021050912F02B99B11C08091B3009091B2000C
S1130220280F311D411D511D2F5F3F4F4F4F5F4F11
S1130230290F311D411D511D04C0260F311D411DC3
S1130240511D872F99278FBFCA01B9010895982F8F
S1130250969596959695EBE2F2E0E90FF11D87707D
S113026021E030E002C0220F331F8A95E2F780813B
S1130270822399270895982F969596959695EBEA5B
S1130280F3E0E90FF11D877021E030E002C0220F96
S1130290331F8A95E2F780818223992708958091FC
S11302A00304882319F02FE170E002C078E021E014
S11302B0622FEFB7F894809149028E7F80934902B0
S11302C080917C00982F9F71829586958695837086
S11302D019F080E090E012C0822F8850863118F027
S11302E081E090E00BC040E050E03327892F99274C
S11302F02817390711F441E050E0CA01982F917092
S1130300990F809149028178262F2F71422F440F33
S1130310440F892B842B80934902332720937C003C
S1130320783059F5809101049091020421E08638D7
S1130330920718F087E090E01FC0833C910518F005
S113034086E090E019C08136910518F085E090E0D0
S113035013C08033910518F084E090E00DC088311B
S1130360910518F083E090E007C00C9718F082E044
S113037090E002C080E090E0782F7770887D872B32
S1130380886D992780937A008E2F99278FBF0895BF
S1130390882319F08CB5806402C08CB58F7B8CBD2A
S11303A008950F931F93982F1FB7F89480910F020D
S11303B0823099F580910A02891779F580910802B3
S11303C020E030E08F3F11F421E030E0232BF1F402
S11303D09FEF90930A028F3F19F42FEF30E00DC086
S11303E0282F3327F901EB5CFC4F808180930802AE
S11303F08F3F11F49093090290832093360381E098
S113040080930F0289E00E94D70005C08FEF80938C
S11304100A0210920F0201E001C000E0812F992727
S11304208FBF1FB7F89480910F02882311F40E94A4
S1130430C801812F99278FBF90E0013009F491E022
S113044081E09827892F99271F910F910895882378
S113045019F08CB5806802C08CB58F778CBD089577
S11304600F931F9380E00E94C8010FB7F8941127DF
S1130470229A2398219A8CB580618CBD80E00E94D9
S113048027028DB581608DBD8CB5877F8CBD8CB501
S11304908B7F8CBD8CB58E7F8CBD81E00E94C801A2
S11304A00FBF1F910F9108958FB7F8942091A60361
S11304B03091A7034091A8035091A903E0918400CF
S11304C0F0918500B09B08C02F5F3F4F4F4F5F4FA7
S11304D0E0918400F091850099278FBFC9017727A7
S11304E066279F0144275527622B732B842B952B5A
S11304F00895FC0180A9826080AB08958C960895CC
S1130500AC01EFB7F8942091840030918500C901C3
S1130510841B950B03968617970720F0B9016D5F2E
S11305207F4F02C0640F751F6115710511F461E0FE
S113053070E061507040709389006093880082E09D
S113054086BB80916F00826080936F008E2F992705
S11305508FBF0895FC01828121819927982F8827D4
S11305603327822B932B85FF1FC087749C7C815477
S11305709848D1F4878146812FB7F8943327609146
S11305800202709103022FBF20E09927982F882739
S11305905527842B952B8617970709F021E081E0D6
S11305A02827822F9927089580E090E00895EF92FC
S11305B0FF920F931F937C018FB7F89499270091B2
S11305C04B0210914C020F5E1E4F10934C0200938D
S11305D04B02015111408FBF87E00E94D700C80130
S11305E0B7010E94CB188A5D9E4F1F910F91FF9017
S11305F0EF900895FC0182A593A50895DF92EF92F0
S1130600FF920F931F938FB7F894282F3327D22E7E
S11306109091B3008091B20047B3981711F041FF55
S113062002C02FBF71C080918C028823E1F10E9427
S1130630FE00E0902202F090230200912402109127
S1130640250220910504309106044091070450913D
S113065008046E197F09800B910B621773078407D6
S1130660950720F010928C0271E01EC02E0D3F1DE4
S1130670401F511F80912C0290912D02A0912E02B7
S1130680B0912F02281B390B4A0B5B0B273E310517
S11306904105510540F4822F223010F070E005C06E
S11306A070E082E002C070E086EE682F61508091B5
S11306B0B60083FDFCCF8091B200681709F46F5F28
S11306C020912C0230912D0240912E0250912F0244
S11306D0DA01C9010196A11DB11D860F911DA11D4D
S11306E0B11D82179307A407B50710F4622F609514
S11306F08091B60083FDFCCF6093B300DFBE772307
S113070019F082E00E94D7001F910F91FF90EF90A3
S1130710DF900895AFB7F894BB27E1E0E0938C0233
S11307206093220270932302809324029093250203
S1130730209305043093060440930704509308045F
S1130740AFBF0E94FE0208951F920F920FB60F9240
S113075011248F938091B0008093B0008091B600F3
S113076081FDFCCF8F910F900FBE0F901F901895B5
S11307701F93182F81E00E94C8011EBD0DB407FE0F
S1130780FDCF8EB599271F9108951F920F920FB632
S11307900F9211248F929F92AF92BF92CF92DF92C9
S11307A0EF92FF920F931F932F933F934F935F9377
S11307B06F937F938F939F93AF93BF93CF93DF9365
S11307C0EF93FF932EB5E091C703F091C8033097E0
S11307D039F08091A2039091A303E80FF91F2083BD
S11307E08091A2039091A30301969093A303809315
S11307F0A20380E00E942702C091A203D091A30328
S113080080911A0290911B02C817D90708F046C0BC
S11308100091090410910A048090C7039090C803C2
S11308200F2EFAE0AF2EBB24F02DAC0EBD1E8A15A0
S11308309B0508F45C016401CC0EDD1E7801EC0E0E
S1130840FD1E15C00115110519F0F701808101C0C5
S113085080E00E94B8038114910411F0F6018083B2
S113086021960894C11CD11C0894E11CF11CC501FB
S11308700197C817D90730F381E00E9427020115B8
S1130880110531F00C0F1D1FF80180818EBD01C0D0
S11308901EBCD093A303C093A20311C01092C8033B
S11308A01092C70310920A041092090410921B02BA
S11308B010921A021092A3031092A2038EB5FF9114
S11308C0EF91DF91CF91BF91AF919F918F917F91E4
S11308D06F915F914F913F912F911F910F91FF90D5
S11308E0EF90DF90CF90BF90AF909F908F900F903C
S11308F00FBE0F901F90189578941F920F920FB609
S11309000F9211240F900FBE0F901F90189578949A
S11309101F920F920FB60F9211240F900FBE0F90DB
S11309201F90189578941F920F920FB60F9211246E
S11309302F933F938F939F93AF93BF932FB7F894C5
S113094033278091A6039091A703A091A803B091A7
S1130950A9030196A11DB11D8093A6039093A7033B
S1130960A093A803B093A9032FBFBF91AF919F9108
S11309708F913F912F910F900FBE0F901F9018955C
S11309801F920F920FB60F9211242F933F934F9300
S11309905F936F937F938F939F93AF93BF93EF93E3
S11309A0FF93409178005091790078948FB7F89430
S11309B0992720914902322F3695317021708FBFCB
S11309C0222351F580917A00877F80937A00809169
S11309D06D03813021F0823009F048C008C0332310
S11309E041F05093CB034093CA0380E112C03323F8
S11309F019F40E944F013AC010926D0380910304D0
S1130A008823A1F510929602509346024093450222
S1130A108EE00E94D7002AC08FB7F89499278FBF21
S1130A202FB7F894332780917A00582F5770482FA6
S1130A304072987D942B952B8074977B982B9061B2
S1130A409F77892F992780937A00887D842B852B23
S1130A5087738061992780937A00887D842B852B06
S1130A60877B8069992780937A002FBFFF91EF914C
S1130A70BF91AF919F918F917F916F915F914F91B2
S1130A803F912F910F900FBE0F901F9018951F92BA
S1130A900F920FB60F9211242F933F934F935F93AE
S1130AA06F937F938F939F93AF93BF93EF93FF9332
S1130AB08091B0008093B0008091B60081FDFCCF9E
S1130AC08091B30099270196AA27BB2720912C0275
S1130AD030912D0240912E0250912F02280F391F80
S1130AE04A1F5B1F20932C0230932D0240932E0249
S1130AF050932F0278940E94FE02FF91EF91BF91D0
S1130B00AF919F918F917F916F915F914F913F91A1
S1130B102F910F900FBE0F901F90189521E02093F6
S1130B20EF03209334032091840030918500BC01AD
S1130B30C9010E94800208951F93CF93DF9380918F
S1130B401402882319F081E090E051C08FB7F89423
S1130B50282F3327122F80911702882369F581E00B
S1130B608093170210928D022FBF2FB7F89433276A
S1130B7080917A00806880937A002FBF8FB7F894B1
S1130B80C82FDD279C2F80910C02813099F480912D
S1130B901702813021F48FE00E94D70009C082300F
S1130BA049F480918D0280930C0283E080931702B4
S1130BB0CFBF1BC09FBF19C080E00E9427018823BC
S1130BC019F085E090E007C080912B02816080934A
S1130BD02B0280E090E01FBF282F882319F481E0C6
S1130BE080931402822F992702C020E0F8CFDF916E
S1130BF0CF911F910895EF920F931F93AE2D99E01B
S1130C00899FF0011124E455FC4F40835183628392
S1130C1073830483158326833783A17080858E7F35
S1130C208A2B8260808783E00E94D7001F910F91F6
S1130C30EF900895AF92BF92CF92DF92EF92FF921E
S1130C400F931F93F82E5A016B010E94FE00AB0113
S1130C50BC01EE24960185018F2D0E94FB051F9196
S1130C600F91FF90EF90DF90CF90BF90AF900895D9
S1130C701F93982F1FB7F89480910E02823099F534
S1130C8080910702891779F58091050220E030E010
S1130C908F3F11F421E030E0232BF1F49FEF909388
S1130CA007028F3F19F42FEF30E00DC0282F3327B0
S1130CB0F901EF5AFD4F8081809305028F3F11F4B3
S1130CC090930602908320934E0281E080930E025B
S1130CD080E00E94D70005C08FEF80930702109236
S1130CE00E0221E001C020E0812F99278FBF90E000
S1130CF0213009F491E081E09827892F99271F91E9
S1130D0008950F931F93CF93DF93182F0FB7F89481
S1130D1080910F02882311F40E943002802F9927BA
S1130D208FBF8FB7F894C82FDD272C2F80910F0227
S1130D30882361F481E080930F021093360389E0E5
S1130D400E94D700CFBF80E090E021C0E12FFF27B1
S1130D50EB5CFC4F80818F3F89F4E0910902E1173D
S1130D6089F40CC01093080204C0FF27EB5CFC4F0D
S1130D7010831093090280E090E002C085E090E0C7
S1130D802FBF05C0809108028F3F79F7EBCFDF9129
S1130D90CF911F910F9108958FB7F894282F33277F
S1130DA0922F80910A02882331F480910F028230BD
S1130DB011F42FBF13C09FBF8FB7F894282F332788
S1130DC080910F02882369F482E080930F021092CD
S1130DD00A022FBF0E943002209A289A81E090E0F4
S1130DE008952FBF80E00E94810680E090E008957E
S1130DF02FB7F8943327809344022FBF85E00E94D5
S1130E00D70008959C0180911802882319F085E089
S1130E1090E008953093CD032093CC0381E0809338
S1130E20180210926C0385E00E94D70080E090E0E5
S1130E300895CF93DF93EC018FE38A878091980222
S1130E408F5F809398028B838091290290912A026C
S1130E50892B11F025E017C088A599A5892B21F0CD
S1130E6061E0CE010E94B500CE010E9402079927DD
S1130E70282F882341F4D0932A02C0932902109288
S1130E80550210925402822F9927DF91CF91089531
S1130E901F93CF93DF93182FFA01422F2D3118F0AF
S1130EA086E090E08AC0DF011196ED0189812181FD
S1130EB050E09927982F88273327822B932B877408
S1130EC09C7C8154984809F451E0552329F481E429
S1130ED0818388E8ED018983435F40832FB7F894C9
S1130EE0332780910202909103022FBF8087892FBC
S1130EF0992781872FB7F8943327809104022FBF55
S1130F0099278483158213876683872F992787837C
S1130F108FB7F894282F332780910E02882371F419
S1130F2082E080930E02109207022FBFCF010E942D
S1130F3019079927182F882399F00FC02FBFF09312
S1130F405002E0934F028FB7F894C82FDD272C2F5F
S1130F5080910E02882399F406C080E00E9438062E
S1130F60812F99272AC081E080930E0210924E02AD
S1130F7080E00E94D700CFBF80E090E01EC0809147
S1130F8051028F3F89F4E0910602EE2369F010C00C
S1130F901092050204C0FF27EF5AFD4F10821092F1
S1130FA0060280E090E002C085E090E02FBF05C01B
S1130FB0809105028F3F79F7EBCFDF91CF911F919D
S1130FC00895AF92BF92CF92DF92EF92FF920F9368
S1130FD01F93CF93DF935B016C01C0E0D0E0ECEA98
S1130FE0F3E07C2F608561FF03C120813181428160
S1130FF05381E480F58006811781D601C501821BE7
S1131000930BA40BB50B8E159F05A007B10708F42D
S1131010EFC060FF03C06D7F608708C02E0D3F1DC9
S1131020401F511F2083318342835383713079F0F1
S1131030713020F0723009F0E1C09FC08091290224
S113104090912A02892B09F4D9C081E07AC0809159
S113105090028A3009F061C080918B02882309F0E4
S113106043C0A2E6B2E0E3EDF3E08CE101900D921F
S11310708150E1F78FEF80935C0280935D0283E9F6
S1131080809361028091A4039091A503892B31F58B
S113109046E552E05093A5034093A40389E280936C
S11310A0560280910D028823A9F010920D022CE1C2
S11310B06FEF7FEF83E90E9448079927282F882341
S11310C049F081E080930D021092A5031092A403CD
S11310D0222321F481E080938B0206C080918B024D
S11310E0882311F40E94AC001092900280910D04A8
S11310F0882389F48091D9039927982F88272091F0
S1131100DA033327822B932B01968093DA03892FFA
S113111099278093D90310920D048FB7F894282F40
S11311203327122F80911102882389F491E0909340
S113113011021092F0032FBF80911202882321F430
S11311408BE00E94D7005AC09093130257C080E0EE
S11311500E943B01882319F085E090E007C080914C
S1131160AB0381608093AB0380E090E01FBF892BC9
S113117009F444C00E94AC0041C09FB7F894209188
S11311801102222319F421E030E00FC080910B02F8
S1131190813019F020E030E008C040E050E02150F8
S11311A0223010F441E050E09A01892F99278FBF33
S11311B0222321F18FB7F894082F1127902F8091C3
S11311C00B02813099F480911102813021F48AE07C
S11311D00E94D70009C0823049F48091F0038093C3
S11311E00B0283E0809311020FBF08C09FBF06C0AB
S11311F021963996C330D10509F0F3CE83E00E94DD
S1131200D700DF91CF911F910F91FF90EF90DF9066
S1131210CF90BF90AF9008950F931F93182F042F72
S1131220E82FFF27EE0FFF1FEC55FC4F11821082B1
S113123010920D02E091A403F091A503309721F0E0
S11312408091040480FF13C081E080930D0203C0E9
S113125082E10E94D7001123E1F4002319F40E94D3
S1131260A30002C00E94AC0010928B0212C0208125
S11312702D50332767817727762F66278681992714
S1131280682B792BAF0183850E944807882319F3C3
S1131290DFCF1F910F9108951F93CF93DF93182FE2
S11312A0C0912902D0912A0210922A021092290296
S11312B08091B4038D7F8093B40380915402909104
S11312C0550299A788A78A858F3389F480E00E9404
S11312D0380680910D02882351F46091A403709123
S11312E0A5036C177D0719F4412F0E940C09DF91A7
S11312F0CF911F9108954F925F926F927F928F9238
S11313009F92AF92BF92CF92DF92EF92FF920F9390
S11313101F93CF93DF932C0180911902882309F046
S11313204DC180910B04853009F048C10E94CC0660
S1131330882309F443C18091F103882309F03EC155
S1131340E201E096F20180A982FD02C090E003C0B0
S1131350F20192A99F7080916E03981781F0909387
S11313606E03289885EC8EBD0DB407FEFDCF8EB5B7
S113137090689EBD0DB407FEFDCF8EB5289A42013C
S11313800894811C911CF4018181F201218140E0C7
S11313909927982F88273327822B932B87749C7C3B
S11313A08154984809F441E0442301F1289886E8DF
S11313B08EBD0DB407FEFDCF8EB51EBC0DB407FE69
S11313C0FDCF8EB5289A99278F719070209197023E
S11313D040915202240F312D311D43E0359527955C
S11313E04A95E1F7281739070CF4E8C0289882ECED
S11313F08EBD0DB407FEFDCF8EB589E08EBD0DB454
S113140007FEFDCF8EB5289A0E9454027B018C0101
S1131410888184FD03C0C0E0D0E006C0F201808171
S11314208550E201C80FD11D289881E88EBD0DB406
S113143007FEFDCF8EB51EBC0DB407FEFDCF8EB5E5
S1131440289A8F71893021F087E080930B04B6C00D
S11314508FB7F89499272F9A2091840030918500B2
S11314608FBF2F98289880E68EBDF20190810DB42D
S113147007FEFDCF8EB59EBD792F7250773010F4E4
S1131480672F01C067E0F401962F41910DB407FE68
S1131490FDCF8EB54EBD9150C1F76150F401E60FFA
S11314A0F11D6F5F31962E193F092E553F4F3901BB
S11314B0882477FC8094982C6E0C7F1C801E911ECF
S11314C0209719F4972F961B1FC088819981AA81B0
S11314D0BB8186199709A809B9098B83292F3A2F4B
S11314E04B2F55272A839D014427552729838B2F6A
S11314F09927AA27BB278883E5CF20810DB407FE4F
S1131500FDCF31968EB52EBD9150B8F70DB407FEC0
S1131510FDCF8EB5289A289882EC8EBD0DB407FEB7
S1131520FDCF8EB586E08EBD0DB407FEFDCF8EB522
S1131530289A209779F18881E9802A81AB80332722
S113154044275527542F432F322F22279927AA2780
S1131550BB27B82FAA2799278827FF2400271127FC
S11315608701FF24EE248E299F29A02BB12BBB24B5
S1131570CC24DD248A299B29AC29BD29282B392B8D
S11315804A2B5B2B260D371D481D591D2883398393
S11315904A835B83C2010E947902C2010E947E02D7
S11315A0FC01608271828282938286E080930B04C4
S11315B084E08093190280E090E002C085E090E02E
S11315C0DF91CF911F910F91FF90EF90DF90CF901B
S11315D0BF90AF909F908F907F906F905F904F904F
S11315E00895AF92BF92CF92DF92EF92FF920F9342
S11315F01F93CF93DF938091F103882309F413C1E0
S11316000E94CC06882309F40EC18FB7F894992759
S1131610C0913203D09133038FBF1092F103289805
S11316208FE88EBD0DB407FEFDCF8EB51EBC0DB484
S113163007FEFDCF8EB5289A982FA82EBB24A0FEB6
S11316400CC080911902833011F0873031F485E0A9
S113165080930B0488E080931902A2FE5FC08091FE
S11316601902863019F41092190203C0882309F074
S113167055C0943009F041C0289886E88EBD0DB459
S113168007FEFDCF8EB51EBC0DB407FEFDCF2EB5F3
S1131690289A2F7180915202982F96959695322F01
S11316A0391B830F80935202E0912602F0912702A6
S11316B080A98B7F886080AB22AB0E9454026B01AF
S11316C07C010091260210912702C8010E94790230
S11316D0C8010E947E02FC01CC19DD092797CE01C6
S11316E0AA2797FDA095BA2F8C0D9D1DAE1DBF1D79
S11316F080839183A283B3830EC0E0912602F0918C
S1131700270280A9877F80ABE0912602F09127020F
S113171080A98D7F80AB85E080931902A3FE83C0EE
S113172080911902843009F04BC085E080930B044A
S11317301092190280919102833019F4109291024F
S113174072C0E0916A03F0916B0382812181992731
S1131750982F88273327822B932B85FF29C08774E2
S11317609C7C8154984821F5878126819927982F5C
S113177088273327822B932B8F5F9F4FC9F090E0EC
S113178080913403882309F491E0992389F012E0CD
S11317901093EF0381E0809334038091840090914F
S11317A0850061EE72E00E948002109391023BC0BA
S11317B01092910210920C0480E00E94F80633C04B
S11317C0853089F580910B04873091F4289882EC58
S11317D08EBD0DB407FEFDCF8EB586E08EBD0DB473
S11317E007FEFDCF8EB5289A85E080930B0417C0C1
S11317F020919702289886E88EBD0DB407FEFDCF90
S11318008EB51EBC0DB407FEFDCF8EB5289A8F7120
S1131810922F96959695891B280F2093970289E01D
S11318208093190208C090911902992309F4E2C225
S1131830993009F00FC2289880E28EBD0DB407FEDE
S1131840FDCF8EB51EBC0DB407FEFDCF8EB5482F5F
S11318505527433008F49EC3842F99278A970CF0A8
S113186099C31EBCE0912602F09127024083542FB5
S11318705250573010F4452F01C047E09F012F5FAD
S11318803F4F942FF90160E070E00DB407FEFDCFE7
S11318908EB51EBC808381916827062E6295607F79
S11318A06025072E762F62956F700626669576273B
S11318B06727660F660F660F6025915031F7415018
S11318C0D901A40FB11D4F5F1196E0912602F0914A
S11318D027028181282F3327277030702230310569
S11318E009F491E09923B9F080919102823081F456
S11318F08381E0916A03F0916B039381891741F42A
S113190090E02230310509F091E081E098270EC083
S113191080E090E00DC08FB7F894282F332790E033
S11319208091AA03833008F491E02FBF892F99276F
S1131930892B09F42FC3952F941B18C00DB407FEEF
S1131940FDCF8EB51EBC8C938D916827062E6295B3
S1131950607F6025072E762F62956F700626669548
S113196076276727660F660F660F6025915030F75C
S11319700DB407FEFDCF8EB51EBC9B012827022E99
S11319802295207F2025032E322F22952F700226A8
S1131990269532272327220F220F220F20250DB44C
S11319A007FEFDCF8EB51EBC2827022E2295207F70
S11319B02025032E322F22952F70022626953227BA
S11319C02327220F220F220F20250DB407FEFDCF5F
S11319D08EB5E0912602F091270281AB289A85E02A
S11319E080930B0410921902232B09F0FFC1E0909D
S11319F02602F090270257010894A11CB11CF7019C
S1131A00818190E08770823009F491E0292F332797
S1131A10122F809191028230C9F480916F008D7FE2
S1131A2080936F0010923403E0916A03F0916B038A
S1131A3080A9222311F0816001C08E7F80AB1092B7
S1131A40910210920C0480E00E94F806112309F020
S1131A50FCC0C7010E94AA028823A9F085E08093F4
S1131A606F0382E08093700310927103F501828109
S1131A70809372038FE693E00E947B09882319F414
S1131A8083E0809391020091840010918500C70146
S1131A900E94AA02882311F0045E1C4F10938A024C
S1131AA0009389028091840090918500081B190B92
S1131AB0C801101611066CF420910C04222331F491
S1131AC00E948E0580E880930C0403C02068209354
S1131AD00C04F501808527819927582F4427332743
S1131AE0422B532B80913002282F3327F901EE0F1C
S1131AF0FF1FEE50FC4F808191817091C9038417C0
S1131B00950769F4F901E25FFB4F8081871709F4B7
S1131B1067C0872F8F5F8093C90380831DC000E057
S1131B2010E080E090E0C2EFD3E0EEE0F4E0DF010B
S1131B30682F9C01888199818417950779F42093F3
S1131B4030029091C9038C91891709F449C0892FF7
S1131B508F5F8093C9038C9300E829C08081972FFD
S1131B60981B091710F4092F122F6F5FC9010196F2
S1131B7011962296319685309105D1F66530B9F4E7
S1131B8010933002A12FBB27FD01EE0FFF1FEE5073
S1131B90FC4F518340838091C9038F5F8093C903B5
S1131BA0FD01E25FFB4F8083AC5EBB4F1C929091C2
S1131BB0C903892F8F778F3779F40F3768F0EEE0F8
S1131BC0F4E0292F207880818F6789132083319650
S1131BD034E0E331F307B9F780913002282F33273B
S1131BE0F5019281A22FBB27FD01EC5EFB4F8081A2
S1131BF080FF07C0FD01E253FC4F8081981729F153
S1131C0002C081608083A253BC4F9C93CFB6F894EA
S1131C108091AA038330B0F4E0912802E80FE33006
S1131C2008F0E350FF27EE0FFF1FE45EFD4F008135
S1131C301181F182E0828F5F8093AA0386E00E9483
S1131C40D70078018C2D99278FBFF0922702E0925C
S1131C502602C3C0892F8150833008F09CC0815074
S1131C608230E0F430910B043130C1F420E08091F3
S1131C703403882309F421E0222381F02F9883E0A0
S1131C808093EF0330933403809184009091850016
S1131C906BE273E00E94800282E068C0933009F036
S1131CA042C080910B04833009F097C00E94CC0697
S1131CB08823C9F128988FE88EBD0DB407FEFDCFA7
S1131CC08EB51EBC0DB407FEFDCF8EB5289A80914B
S1131CD0810080648093810080E286BB80916F00E4
S1131CE0806280936F0090914D02289888EC8EBD9D
S1131CF00DB407FEFDCF8EB590669EBD0DB407FEF4
S1131D00FDCF8EB5289A289882EC8EBD0DB407FEBF
S1131D10FDCF8EB586E08EBD0DB407FEFDCF8EB52A
S1131D20289A84E023C0809119028150823000F502
S1131D3080910B048530E1F40E94CC068823C1F025
S1131D40289882EC8EBD0DB407FEFDCF8EB583E0DE
S1131D508EBD0DB407FEFDCF8EB5289A80916F001D
S1131D608F7D80936F001092F10383E080930B04C6
S1131D7090911902913041F480910B048330B1F5B4
S1131D802F9A90930B0425C0923039F580910B045F
S1131D90833061F51EC0973001F50E94CC0688237C
S1131DA0E1F090914D02289888EC8EBD0DB407FEA9
S1131DB0FDCF8EB590669EBD0DB407FEFDCF8EB5EA
S1131DC0289A80910B04853021F484E080930B04DD
S1131DD004C088E08093190204C0809119028830FD
S1131DE029F41092190284E00E94D700809119020C
S1131DF0882331F580910B048530F9F48091F10347
S1131E008823D9F4809191028823B9F480910C0439
S1131E10882399F490E080913403882309F491E0B5
S1131E20992359F080911802813039F485E00E9499
S1131E30D70080911902882319F480E00E94D1010F
S1131E4080913403823009F098C010923403C0901A
S1131E50EF03F2E0CF1609F46CC023E0C21609F4D4
S1131E6070C031E0C31609F088C020918902309116
S1131E708A02809184009091850040910C0440383E
S1131E8059F410920C0480911802813009F075C045
S1131E9085E00E94D70071C08901081B190B47FF18
S1131EA003C010161106ECF0C0918E02D0918F027F
S1131EB0809191028823A9F4CE010E947B0999277D
S1131EC0882351F488A98E7F88ABC0929102D09365
S1131ED06B03C0936A0329C09927F82E882329F13C
S1131EE002C065E0F62E20910C04822F99278F778B
S1131EF0019759F42078226020930C0480E198E043
S1131F000E94D7020E948E0538C027FF0AC010160F
S1131F1011063CF480E880930C04C8010E948E05ED
S1131F2002C010920C048F2D09C083E080930C042E
S1131F3024C01092910210920C0480E00E94F806D2
S1131F401CC080910B04823019F4C0920B0413C09E
S1131F5080911902863079F410921902289881E848
S1131F608EBD0DB407FEFDCF8EB51EBC0DB407FEAD
S1131F70FDCF8EB5289A0E94F30F8FB7F894282FBF
S1131F80332780914A02813061F081E080934A02D4
S1131F902FBF31CB289A85E080930B04109219024D
S1131FA025CF10924A022FBFDF91CF911F910F913D
S1131FB0FF90EF90DF90CF90BF90AF9008958FB7D0
S1131FC0F894282F332780914A02815080934A0243
S1131FD0803811F02FBF089581E080934A022FBF0B
S1131FE00E94F10A08958FB7F894282F332780911F
S1131FF04A02882329F0806880934A022FBF0895FB
S113200081E080934A022FBF0E94F10A08957894D8
S11320101F920F920FB60F9211242F933F934F9359
S11320205F936F937F938F939F93AF93BF93EF933C
S1132030FF938091840090918500209186003091D7
S113204087008FB7F8949927309333032093320392
S113205021E02093F1038FBF0E94F30FFF91EF91D2
S1132060BF91AF919F918F917F916F915F914F91AC
S11320703F912F910F900FBE0F901F901895789459
S11320801F920F920FB60F9211242F933F934F93E9
S11320905F936F937F938F939F93AF93BF93EF93CC
S11320A0FF9380916F008D7F80936F0078949FB72A
S11320B0F89480913403813019F482E080933403DE
S11320C0892F99278FBF0E94F30FFF91EF91BF9142
S11320D0AF919F918F917F916F915F914F913F91BC
S11320E02F910F900FBE0F901F9018952F923F9233
S11320F04F925F926F927F928F929F92AF92BF9214
S1132100CF92DF92EF92FF920F931F93CF93DF93BF
S1132110CDB7DEB729970FB6F894DEBF0FBECDBF9B
S1132120E82FFF27E331F10508F0ACC4EA59FF4F6B
S1132130EE0FFF1F0590F491E02D099480910404A3
S1132140882309F49FC420E011E04EC42FB7F8940B
S1132150332780914E028093070282E080930E021F
S11321602FBF80910702882309F08CC480914F020D
S1132170909150020E941907082F1127002309F497
S113218081C480E00E94380620914F0230915002B1
S113219080910D02882309F075C46091A4037091A5
S11321A0A5036217730709F06DC4402F47C4E0917B
S11321B02902F0912A0280A591A5892B21F061E0E2
S11321C0CF010E94B5008091290290912A020E94B9
S11321D00207882309F456C427C180914702882343
S11321E061F52091FC033091FD034091FE03509171
S11321F0FF03EFB7F894FF27609122027091230246
S11322008091240290912502E0900504F090060448
S113221000910704109108046E0D7F1D801F911F0B
S1132220EFBF2093FC033093FD034093FE035093D0
S1132230FF03109247020E948A030E94FE003FC0DF
S11322400E94FE005B016C018FB7F89499271092ED
S11322508C028FBF2FEF3FEF4FEF5FE760E0ECEAB8
S1132260F3E0808581FF1CC080819181A281B381CC
S113227086017501E81AF90A0A0B1B0BD801C7017C
S1132280E480F58006811781E81AF90A0A0B1B0B12
S1132290E216F306040715071CF4A801970161E090
S11322A0399603E0E73CF007E1F6662309F4EAC354
S11322B012161306140615062CF0C601B5010E9469
S11322C0E107E0C32093FC033093FD034093FE0336
S11322D05093FF0381E080934702C601B5010E9439
S11322E08A03D0C38091180210921802843091F4AA
S11322F04091D5035527542F44278091D60399271D
S1132300482B592B6627772781E00E941A061092E2
S11323109002B8C3853009F4B5C3863009F4B2C35A
S113232080931802AFC38FB7F89499271091440291
S11323308FBF80911802823011F4112339F08091FB
S11323406C038F5F80936C03863020F083E080936E
S113235018023CC08FB7F894992720914A022F5F46
S113236020934A028FBF2091CC033091CD038091FA
S11323700C048823D1F490E080913403882309F479
S113238091E0992391F030938F0220938E0281E0A3
S113239080930C0486EB93E20E94D7020E948E0580
S11323A082E08093180210E00AC080916C038530AB
S11323B011F483E001C081E08093180215E00E94CB
S11323C0DF0F80911802833009F05CC31092180269
S11323D0E091CC03F091CD03209154023091550249
S11323E02F5F3F4F309355022093540280A980FF02
S11323F002C080E01CC0E0912902F0912A0280A56D
S113240091A52817390790F4CF010E94FA028C0194
S1132410892B51F00E94FE00AB01BC012227332717
S1132420E1E0EE2E80E0D9C281E0EFC1812F0E946D
S11324304C0928C38FB7F894282F33278091AA0317
S1132440882309F41EC3E0912802FF27EE0FFF1F23
S1132450E45EFD4FE080F1802FBFF70182858F336A
S113246009F078C06385878126819927582F4427EE
S11324703327422B532B8FB7F894992720910202CC
S1132480309103028FBF4217530721F04F5F5F4F14
S113249009F064C0633909F061C02FB7F894332799
S11324A082B111E0812782B92FBFF7018485258588
S11324B09927582F44273327422B532B8091D3033A
S11324C09927982F88272091D4033327822B932B85
S11324D08417950700F54093D403852F992780939B
S11324E0D303868527859927982F88273327822B1E
S11324F0932B8093D603492F55274093D503542F0C
S113250044279927482B592B6627772781E00E9477
S11325101A0610929002F701828923899927582F6D
S113252044273327422B532B8091D9039927982F83
S113253088272091DA033327822B932B841795075E
S113254068F44093DA03852F99278093D903109375
S11325500D0404C08FB7F89499278FBF9FB7F894E0
S113256080912802E82FFF27EE0FFF1FE45EFD4F46
S1132570F182E0828F5F80932802833010F0109202
S113258028028091AA0381508093AA03892F992756
S11325908FBF50CFFFB7F983F89420909202309008
S11325A093024090940250909502662477248824E4
S11325B09EE4A92E83E8B82ECC24DD24EE24FF2447
S11325C000E010E0222D332D442D552D662D772D5E
S11325D0882D90E00E9443172A833B834C835D83BC
S11325E06E837F8388879987822E932EA42EB52E9F
S11325F02401350100E20E944118A22EB32EC42EFC
S1132600D52EA301920156954795379527952A0D06
S11326103B1D4C1D5D1D57FF05C05F772F5F3F4F6E
S11326204F4F5F4F20939202309393024093940252
S113263050939502E9808E2D99278FBF8FB7F89418
S1132640992730934C0220934B0213C08FB7F89410
S113265099271092C8031092C70310920A0410928B
S1132660090410921B0210921A021092A3031092F2
S1132670A2038FBF07C22FB7F89433278091360384
S113268080930A0282E080930F022FBF80910A0296
S1132690882309F0F7C1209A289A80910B04882393
S11326A009F075C08EEF91E0019701960197E1F76B
S11326B016982F9886E090E0019701960197E1F72C
S11326C0169A289883EC8EBD0DB407FEFDCF8EB507
S11326D01EBC0DB407FEFDCF8EB5289A289882EC57
S11326E08EBD0DB407FEFDCF8EB588E08EBD0DB452
S11326F007FEFDCF8EB5289A8EEF91E001970196E3
S11327000197E1F728988EEC8EBD0DB407FEFDCF3E
S11327108EB58DE48EBD0DB407FEFDCF8EB5289A1F
S1132720289889EC8EBD0DB407FEFDCF8EB587ECDD
S11327308EBD0DB407FEFDCF8EB5289A289885EC82
S11327408EBD0DB407FEFDCF8EB580E88EBD0DB4F1
S113275007FEFDCF8EB5289A10926E038BE080930E
S11327604D02289888EC8EBD0DB407FEFDCF8EB5C2
S11327708BE68EBD0DB407FEFDCF8EB5289A2F9A39
S113278081E080930B0480E00E94D1017BC10E9410
S1132790F30F78C12FB7F89433278091F003809317
S11327A00B0283E0809311022FBF10910B028FB7AD
S11327B0F894282F3327922F80910C02882359F400
S11327C080911702833039F42FBF8091150288233A
S11327D009F058C102C09FBF55C182E080936D03C8
S11327E0109203040E944F0181E08093150210931C
S11327F0480248C10E949C0545C180911402813061
S113280009F040C175986D988DE00E94D7003AC1D7
S11328108FB7F894E82E80911702833009F041C0F5
S113282080910C028823E9F580912B02882309F01A
S113283013C107C1EF2DE695E695E695FF274F2DC9
S11328405527E55DFD4F9A012770307081E090E0D7
S113285002C0880F991F2A95E2F7809520812823CA
S113286020830093160212C00F5F1F4F0130110521
S113287011F400E010E0F02E802F0E94270188233D
S1132880C9F60C151D0581F74FEF50E040938D02FA
S11328908FEF80930C0281E0809317028FE00E94F7
S11328A0D700EFBE1092140280911302813011F40C
S11328B00E949C058FB7F8949927109213021092E6
S11328C01202D7CE10921502C0904502D090460253
S11328D0A0909602B09048028FB7F894E82E8091A9
S11328E01102833009F041C080910B028B15E9F588
S11328F08091AB03882309F0BEC0B4C0EF2DE695E8
S1132900E695E695FF274F2D5527E555FC4F9A018F
S11329102770307081E090E002C0880F991F2A95DB
S1132920E2F780952081282320830093100212C0AF
S11329300F5F1F4F0130110511F400E010E0F02E7D
S1132940802F0E943B018823C9F60815190581F7D9
S11329504FEF50E04093F0038FEF80930B0281E040
S1132960809311028AE00E94D700EFBEBB2009F0D9
S113297089C0AA2029F00E94AC001FEFC12ED12EDD
S1132980E0919002EF5FE0939002E150FF27EE0F99
S1132990FF1FE552FC4FC1828D2D9927808372C0A1
S11329A02FB7F894332780918D0280930C0283E033
S11329B0809317022FBF80910C02882309F062C014
S11329C06D9A759A0E94FE00AB01BC01E1E0EE2E07
S11329D00AE010E020E030E082E00E94FB0552C0F3
S11329E010926D034FC0110F90910404812F89231D
S11329F0B1F0E22FFF27EE0FFF1FEC55FC4F1182C1
S1132A001082812F8095982390930404222339F413
S1132A100E94AC0010928B02110F21E0E5CF2F5FD2
S1132A20283008F32FC080910D02E82FFF27EE0F06
S1132A30FF1FEC55FC4F6081718141E00E940C093D
S1132A4021C081E080930C021092170280917A00D9
S1132A508F7780937A0025CF80911602C82EDD24CB
S1132A60860102CF81E080930B02109211028093C1
S1132A7012028CE078CF80911002882E9924840170
S1132A8057CF2FBF29960FB6F894DEBF0FBECDBF28
S1132A90DF91CF911F910F91FF90EF90DF90CF9036
S1132AA0BF90AF909F908F907F906F905F904F906A
S1132AB03F902F900895809100048F3FB1F0282F0C
S1132AC03327F901EF5CFD4F8081809300048F3F31
S1132AD011F4809313048FEF80832F3F31F0822F02
S1132AE00E94761081E090E0089580E090E00895DF
S1132AF0CFEFD1E2DEBFCDBF1FB7F89443E150E082
S1132B006FEF70E081E392E00E94C4188FEF80932E
S1132B1000048093130456985E9854985C988091AE
S1132B206F008F7D80936F00209A289A279A2F98A0
S1132B300E9A169A87E393E09093270280932602D5
S1132B40109297028AE58093520281E0809381007B
S1132B5080E28093B60083E08093B100809184008A
S1132B60909185004AE720918400309185002817D0
S1132B70390708F44150442311F0C901F4CF90916E
S1132B80B2008091B2008917E1F320918400309162
S1132B9085009091B2008091B2008917E1F3809191
S1132BA0840090918500821B930B4096B5E0969526
S1132BB08795BA95E1F790930204809301041092EB
S1132BC0B1008091B1008093810080918100809355
S1132BD0B6001092B20010928500109284008FEF1C
S1132BE087BB87B386BB8091B6008571E1F70A9AEB
S1132BF0099A089A129A119A109A18B88FEF87B9FD
S1132C000C98149810927A00109285001092840007
S1132C1080916F00816080936F0080918100887F34
S1132C2082608093810081E085BF0E945B158823C8
S1132C30E1F710922B021092AB038FEF80933503D0
S1132C4080E00E94810620910002309101022F5FF2
S1132C503F4FC901AA27BB27809392029093930206
S1132C60A0939402B093950289E992E090931D0297
S1132C7080931C02C39690931F0280931E028FEFD1
S1132C8092E090932102809320028091B6008062AA
S1132C908093B6008091B60081FDFCCF82E08093E2
S1132CA0B0008091B60080FDFCCF83E08093B1003A
S1132CB08091B60083FDFCCF86EE8093B3008091B3
S1132CC070008260809370000E94FE028FEF9FEF7D
S1132CD09093F3038093F2039093F5038093F403AA
S1132CE09093F7038093F6039093F9038093F8038A
S1132CF09093FB038093FA03809100028295807F76
S1132D00809398028FEF809351020E945B15882371
S1132D10E1F7812F99278FBF78941092D60381E031
S1132D208093D50380910002909101028093D8038F
S1132D30892F99278093D7032FB7F894332780914D
S1132D404A028F5F80934A022FBF80911802882322
S1132D50F1F4809119028823D1F480910B0481301D
S1132D6049F490E080913403882309F491E0992395
S1132D7071F002C0853059F083E0809319020E94FB
S1132D80F30F84E0809318020E94DF0F04C00E94B6
S1132D90DF0F0E94AC008FB7F894482F552758C016
S1132DA080917000992783709070892B19F4E5E065
S1132DB0F0E014C08091B6008A71E1F78091B3000D
S1132DC09091B200891B8C3038F08091B200853F1D
S1132DD018F4E3E0F0E002C0E2E0F0E080916E007D
S1132DE0867009F580916F008E72E9F4809171000C
S1132DF08E72C9F40CB407FC16C08091C100807EA9
S1132E0091F48091C900807E71F48091BC0082FDB0
S1132E100AC080917A0087FF03C081E090E005C07A
S1132E2085E090E002C080E090E023B78E1708F4BC
S1132E30E82FFF27EE50FF4FC895E02D207F21603B
S1132E40E22BE3BF78948895F89483B78E7F83BF91
S1132E50809100048F3F09F4A3CF282F3327F90171
S1132E60EF5CFD4F8081809300048F3F11F48093C9
S1132E7013048FEF80832F3F09F492CF4FBF822F2B
S1132E800E94761088CFACE2B0E0E9E4F7E10C945C
S1132E90FE18222E332E442E552E662E772E882E83
S1132EA0992EFE013196A8E01192AA95E9F729829C
S1132EB03A824B825C826D827E828F829886FE018A
S1132EC03996B8E01192BA95E9F7A986BA86CB8605
S1132ED0DC86ED86FE860F87188B89819A81AB810B
S1132EE0BC8189A79AA7ABA7BCA77C018D018FEFF2
S1132EF09FEFA0E0B0E0E822F9220A231B2389A572
S1132F009AA5ABA5BCA51D014424552489859A85A1
S1132F10AB85BC858DA39EA3AFA3B8A75C016D014F
S1132F208FEF9FEFA0E0B0E0A822B922CA22DB22F3
S1132F308DA19EA1AFA1B8A53D0188249924C80103
S1132F40B701A60195010E94DF1869A37AA38BA398
S1132F509CA3C801B701A40193010E94DF187B015F
S1132F608C01C201B101A60195010E94DF185B0129
S1132F706C01C201B101A40193010E94DF183B015D
S1132F804C01EA0CFB1C0C1D1D1D89A19AA1ABA1CF
S1132F90BCA19D01442755272E0D3F1D401F511FE5
S1132FA02A153B054C055D0540F480E090E0A1E066
S1132FB0B0E0680E791E8A1E9B1ECA01AA27BB2791
S1132FC0860D971DA81DB91D8D8F9E8FAF8FB8A339
S1132FD0A9013327222789A19AA1ABA1BCA1A07082
S1132FE0B070280F391F4A1F5B1F298F3A8F4B8FF0
S1132FF05C8FA98CBA8CCB8CDC8CED8CFE8C0F8D09
S113300018A1FE01719698E011929A95E9F7ED8A5C
S1133010FE8A0F8B188F2D813E814F8158856DA1BB
S11330207EA18FA198A50E94DF183B014C012D853C
S11330303E854F85588969A57AA58BA59CA50E94D4
S1133040DF182D893E894F89588D260F371F481F59
S1133050591F260D371D481D591D2D8B3E8B4F8B37
S1133060588F6D887E888F88988C2A2D3B2D4C2D07
S11330705D2D662D772D882D992DE2E1AC960C946B
S11330801A19A0E1B0E0E7E4F8E10C94FE18222E4E
S1133090332E442E552E662E772E882E992E0023FD
S11330A009F466C088E0FE01319611928A95E9F729
S11330B029833A834B835C836D837E838F829887D5
S11330C0E0E2E01B1E16CCF52D813E814F81588530
S11330D0602F772767FD7095DA01C901062E04C0B9
S11330E0B695A795979587950A94D2F78D879E876D
S11330F0AF87B88B04C0220F331F441F551FEA95B6
S1133100D2F789819A81AB81BC8104C0B695A79519
S1133110979587956A95D2F7282B392B4A2B5B2BE9
S113312029873A874B875C8729843A844B845C845B
S11331306D847E848F8498881BC01D861E861F869E
S1133140188A2E2F332727FD3095309521953F4F30
S11331508D819E81AF81B88504C0B695A79597955A
S113316087952A95D2F789879A87AB87BC87DCCF66
S1133170222D332D442D552D662D772D882D992DF7
S1133180E2E160960C941A19DC0101C06D93415080
S11331905040E0F70895AA1BBB1B51E107C0AA1FCA
S11331A0BB1FA617B70710F0A61BB70B881F991FE4
S11331B05A95A9F780959095BC01CD010895629F19
S11331C0D001739FF001829FE00DF11D649FE00D1B
S11331D0F11D929FF00D839FF00D749FF00D659F7C
S11331E0F00D9927729FB00DE11DF91F639FB00D7B
S11331F0E11DF91FBD01CF01112408952F923F92C3
S11332004F925F926F927F928F929F92AF92BF92F2
S1133210CF92DF92EF92FF920F931F93CF93DF939E
S1133220CDB7DEB7CA1BDB0B0FB6F894DEBF0FBEFB
S1133230CDBF09942A88398848885F846E847D8448
S11332408C849B84AA84B984C884DF80EE80FD804A
S11332500C811B81AA81B981CE0FD11D0FB6F894C0
S10F3260DEBF0FBECDBFED010895FFCF0F
S111326C0100010022FFFFFFFFFFFF0101012F
S9030000FC
